{
  "_format": "hh-sol-artifact-1",
  "contractName": "PharmaTrace",
  "sourceName": "contracts/PharmaTrace.sol",
  "abi": [
    {
      "inputs": [
        {
          "internalType": "address",
          "name": "admin",
          "type": "address"
        }
      ],
      "stateMutability": "nonpayable",
      "type": "constructor"
    },
    {
      "inputs": [],
      "name": "AccessControlBadConfirmation",
      "type": "error"
    },
    {
      "inputs": [
        {
          "internalType": "address",
          "name": "account",
          "type": "address"
        },
        {
          "internalType": "bytes32",
          "name": "neededRole",
          "type": "bytes32"
        }
      ],
      "name": "AccessControlUnauthorizedAccount",
      "type": "error"
    },
    {
      "inputs": [],
      "name": "EnforcedPause",
      "type": "error"
    },
    {
      "inputs": [],
      "name": "ExpectedPause",
      "type": "error"
    },
    {
      "inputs": [],
      "name": "UnsupportedRole",
      "type": "error"
    },
    {
      "anonymous": false,
      "inputs": [
        {
          "indexed": true,
          "internalType": "uint256",
          "name": "batchId",
          "type": "uint256"
        },
        {
          "indexed": true,
          "internalType": "address",
          "name": "actor",
          "type": "address"
        },
        {
          "indexed": false,
          "internalType": "bytes32",
          "name": "recallHash",
          "type": "bytes32"
        }
      ],
      "name": "BatchRecalled",
      "type": "event"
    },
    {
      "anonymous": false,
      "inputs": [
        {
          "indexed": true,
          "internalType": "uint256",
          "name": "batchId",
          "type": "uint256"
        },
        {
          "indexed": false,
          "internalType": "string",
          "name": "batchCode",
          "type": "string"
        },
        {
          "indexed": false,
          "internalType": "string",
          "name": "productName",
          "type": "string"
        },
        {
          "indexed": true,
          "internalType": "address",
          "name": "manufacturer",
          "type": "address"
        },
        {
          "indexed": false,
          "internalType": "bytes32",
          "name": "metadataHash",
          "type": "bytes32"
        },
        {
          "indexed": false,
          "internalType": "bytes32",
          "name": "documentHash",
          "type": "bytes32"
        },
        {
          "indexed": false,
          "internalType": "uint64",
          "name": "expiresAt",
          "type": "uint64"
        }
      ],
      "name": "BatchRegistered",
      "type": "event"
    },
    {
      "anonymous": false,
      "inputs": [
        {
          "indexed": true,
          "internalType": "uint256",
          "name": "batchId",
          "type": "uint256"
        },
        {
          "indexed": true,
          "internalType": "address",
          "name": "actor",
          "type": "address"
        },
        {
          "indexed": false,
          "internalType": "enum PharmaTrace.BatchState",
          "name": "newState",
          "type": "uint8"
        },
        {
          "indexed": false,
          "internalType": "bytes32",
          "name": "checkpointHash",
          "type": "bytes32"
        }
      ],
      "name": "CheckpointRecorded",
      "type": "event"
    },
    {
      "anonymous": false,
      "inputs": [
        {
          "indexed": false,
          "internalType": "address",
          "name": "account",
          "type": "address"
        }
      ],
      "name": "Paused",
      "type": "event"
    },
    {
      "anonymous": false,
      "inputs": [
        {
          "indexed": true,
          "internalType": "bytes32",
          "name": "role",
          "type": "bytes32"
        },
        {
          "indexed": true,
          "internalType": "bytes32",
          "name": "previousAdminRole",
          "type": "bytes32"
        },
        {
          "indexed": true,
          "internalType": "bytes32",
          "name": "newAdminRole",
          "type": "bytes32"
        }
      ],
      "name": "RoleAdminChanged",
      "type": "event"
    },
    {
      "anonymous": false,
      "inputs": [
        {
          "indexed": true,
          "internalType": "bytes32",
          "name": "role",
          "type": "bytes32"
        },
        {
          "indexed": true,
          "internalType": "address",
          "name": "account",
          "type": "address"
        },
        {
          "indexed": true,
          "internalType": "address",
          "name": "sender",
          "type": "address"
        }
      ],
      "name": "RoleGranted",
      "type": "event"
    },
    {
      "anonymous": false,
      "inputs": [
        {
          "indexed": true,
          "internalType": "bytes32",
          "name": "role",
          "type": "bytes32"
        },
        {
          "indexed": true,
          "internalType": "address",
          "name": "account",
          "type": "address"
        },
        {
          "indexed": true,
          "internalType": "address",
          "name": "sender",
          "type": "address"
        }
      ],
      "name": "RoleRevoked",
      "type": "event"
    },
    {
      "anonymous": false,
      "inputs": [
        {
          "indexed": true,
          "internalType": "uint256",
          "name": "batchId",
          "type": "uint256"
        },
        {
          "indexed": true,
          "internalType": "address",
          "name": "from",
          "type": "address"
        },
        {
          "indexed": true,
          "internalType": "address",
          "name": "to",
          "type": "address"
        }
      ],
      "name": "TransferAccepted",
      "type": "event"
    },
    {
      "anonymous": false,
      "inputs": [
        {
          "indexed": true,
          "internalType": "uint256",
          "name": "batchId",
          "type": "uint256"
        },
        {
          "indexed": true,
          "internalType": "address",
          "name": "from",
          "type": "address"
        },
        {
          "indexed": true,
          "internalType": "address",
          "name": "to",
          "type": "address"
        },
        {
          "indexed": false,
          "internalType": "bytes32",
          "name": "shipmentHash",
          "type": "bytes32"
        }
      ],
      "name": "TransferRequested",
      "type": "event"
    },
    {
      "anonymous": false,
      "inputs": [
        {
          "indexed": false,
          "internalType": "address",
          "name": "account",
          "type": "address"
        }
      ],
      "name": "Unpaused",
      "type": "event"
    },
    {
      "inputs": [],
      "name": "DEFAULT_ADMIN_ROLE",
      "outputs": [
        {
          "internalType": "bytes32",
          "name": "",
          "type": "bytes32"
        }
      ],
      "stateMutability": "view",
      "type": "function"
    },
    {
      "inputs": [],
      "name": "DISTRIBUTOR_ROLE",
      "outputs": [
        {
          "internalType": "bytes32",
          "name": "",
          "type": "bytes32"
        }
      ],
      "stateMutability": "view",
      "type": "function"
    },
    {
      "inputs": [],
      "name": "LOGISTICS_ROLE",
      "outputs": [
        {
          "internalType": "bytes32",
          "name": "",
          "type": "bytes32"
        }
      ],
      "stateMutability": "view",
      "type": "function"
    },
    {
      "inputs": [],
      "name": "MANUFACTURER_ROLE",
      "outputs": [
        {
          "internalType": "bytes32",
          "name": "",
          "type": "bytes32"
        }
      ],
      "stateMutability": "view",
      "type": "function"
    },
    {
      "inputs": [],
      "name": "PHARMACY_ROLE",
      "outputs": [
        {
          "internalType": "bytes32",
          "name": "",
          "type": "bytes32"
        }
      ],
      "stateMutability": "view",
      "type": "function"
    },
    {
      "inputs": [],
      "name": "REGULATOR_ROLE",
      "outputs": [
        {
          "internalType": "bytes32",
          "name": "",
          "type": "bytes32"
        }
      ],
      "stateMutability": "view",
      "type": "function"
    },
    {
      "inputs": [
        {
          "internalType": "uint256",
          "name": "batchId",
          "type": "uint256"
        }
      ],
      "name": "acceptTransfer",
      "outputs": [],
      "stateMutability": "nonpayable",
      "type": "function"
    },
    {
      "inputs": [
        {
          "internalType": "string",
          "name": "batchCode",
          "type": "string"
        },
        {
          "internalType": "string",
          "name": "productName",
          "type": "string"
        },
        {
          "internalType": "uint64",
          "name": "expiresAt",
          "type": "uint64"
        },
        {
          "internalType": "bytes32",
          "name": "metadataHash",
          "type": "bytes32"
        },
        {
          "internalType": "bytes32",
          "name": "documentHash",
          "type": "bytes32"
        }
      ],
      "name": "createBatch",
      "outputs": [
        {
          "internalType": "uint256",
          "name": "batchId",
          "type": "uint256"
        }
      ],
      "stateMutability": "nonpayable",
      "type": "function"
    },
    {
      "inputs": [
        {
          "internalType": "uint256",
          "name": "batchId",
          "type": "uint256"
        }
      ],
      "name": "getBatch",
      "outputs": [
        {
          "components": [
            {
              "internalType": "uint256",
              "name": "id",
              "type": "uint256"
            },
            {
              "internalType": "string",
              "name": "batchCode",
              "type": "string"
            },
            {
              "internalType": "string",
              "name": "productName",
              "type": "string"
            },
            {
              "internalType": "address",
              "name": "manufacturer",
              "type": "address"
            },
            {
              "internalType": "address",
              "name": "currentCustodian",
              "type": "address"
            },
            {
              "internalType": "uint64",
              "name": "manufacturedAt",
              "type": "uint64"
            },
            {
              "internalType": "uint64",
              "name": "expiresAt",
              "type": "uint64"
            },
            {
              "internalType": "bytes32",
              "name": "metadataHash",
              "type": "bytes32"
            },
            {
              "internalType": "bytes32",
              "name": "documentHash",
              "type": "bytes32"
            },
            {
              "internalType": "enum PharmaTrace.BatchState",
              "name": "state",
              "type": "uint8"
            },
            {
              "internalType": "bool",
              "name": "exists",
              "type": "bool"
            }
          ],
          "internalType": "struct PharmaTrace.Batch",
          "name": "",
          "type": "tuple"
        }
      ],
      "stateMutability": "view",
      "type": "function"
    },
    {
      "inputs": [
        {
          "internalType": "bytes32",
          "name": "role",
          "type": "bytes32"
        }
      ],
      "name": "getRoleAdmin",
      "outputs": [
        {
          "internalType": "bytes32",
          "name": "",
          "type": "bytes32"
        }
      ],
      "stateMutability": "view",
      "type": "function"
    },
    {
      "inputs": [
        {
          "internalType": "bytes32",
          "name": "role",
          "type": "bytes32"
        },
        {
          "internalType": "address",
          "name": "account",
          "type": "address"
        }
      ],
      "name": "grantRole",
      "outputs": [],
      "stateMutability": "nonpayable",
      "type": "function"
    },
    {
      "inputs": [
        {
          "internalType": "address",
          "name": "account",
          "type": "address"
        },
        {
          "internalType": "bytes32",
          "name": "role",
          "type": "bytes32"
        }
      ],
      "name": "grantSupplyChainRole",
      "outputs": [],
      "stateMutability": "nonpayable",
      "type": "function"
    },
    {
      "inputs": [
        {
          "internalType": "bytes32",
          "name": "role",
          "type": "bytes32"
        },
        {
          "internalType": "address",
          "name": "account",
          "type": "address"
        }
      ],
      "name": "hasRole",
      "outputs": [
        {
          "internalType": "bool",
          "name": "",
          "type": "bool"
        }
      ],
      "stateMutability": "view",
      "type": "function"
    },
    {
      "inputs": [],
      "name": "pause",
      "outputs": [],
      "stateMutability": "nonpayable",
      "type": "function"
    },
    {
      "inputs": [],
      "name": "paused",
      "outputs": [
        {
          "internalType": "bool",
          "name": "",
          "type": "bool"
        }
      ],
      "stateMutability": "view",
      "type": "function"
    },
    {
      "inputs": [
        {
          "internalType": "uint256",
          "name": "",
          "type": "uint256"
        }
      ],
      "name": "pendingTransfers",
      "outputs": [
        {
          "internalType": "address",
          "name": "from",
          "type": "address"
        },
        {
          "internalType": "address",
          "name": "to",
          "type": "address"
        },
        {
          "internalType": "uint64",
          "name": "requestedAt",
          "type": "uint64"
        },
        {
          "internalType": "bytes32",
          "name": "shipmentHash",
          "type": "bytes32"
        },
        {
          "internalType": "bool",
          "name": "exists",
          "type": "bool"
        }
      ],
      "stateMutability": "view",
      "type": "function"
    },
    {
      "inputs": [
        {
          "internalType": "uint256",
          "name": "batchId",
          "type": "uint256"
        },
        {
          "internalType": "bytes32",
          "name": "recallHash",
          "type": "bytes32"
        }
      ],
      "name": "recallBatch",
      "outputs": [],
      "stateMutability": "nonpayable",
      "type": "function"
    },
    {
      "inputs": [
        {
          "internalType": "uint256",
          "name": "batchId",
          "type": "uint256"
        },
        {
          "internalType": "bytes32",
          "name": "checkpointHash",
          "type": "bytes32"
        },
        {
          "internalType": "enum PharmaTrace.BatchState",
          "name": "nextState",
          "type": "uint8"
        }
      ],
      "name": "recordCheckpoint",
      "outputs": [],
      "stateMutability": "nonpayable",
      "type": "function"
    },
    {
      "inputs": [
        {
          "internalType": "bytes32",
          "name": "role",
          "type": "bytes32"
        },
        {
          "internalType": "address",
          "name": "callerConfirmation",
          "type": "address"
        }
      ],
      "name": "renounceRole",
      "outputs": [],
      "stateMutability": "nonpayable",
      "type": "function"
    },
    {
      "inputs": [
        {
          "internalType": "uint256",
          "name": "batchId",
          "type": "uint256"
        },
        {
          "internalType": "address",
          "name": "to",
          "type": "address"
        },
        {
          "internalType": "bytes32",
          "name": "shipmentHash",
          "type": "bytes32"
        }
      ],
      "name": "requestTransfer",
      "outputs": [],
      "stateMutability": "nonpayable",
      "type": "function"
    },
    {
      "inputs": [
        {
          "internalType": "bytes32",
          "name": "role",
          "type": "bytes32"
        },
        {
          "internalType": "address",
          "name": "account",
          "type": "address"
        }
      ],
      "name": "revokeRole",
      "outputs": [],
      "stateMutability": "nonpayable",
      "type": "function"
    },
    {
      "inputs": [
        {
          "internalType": "address",
          "name": "account",
          "type": "address"
        },
        {
          "internalType": "bytes32",
          "name": "role",
          "type": "bytes32"
        }
      ],
      "name": "revokeSupplyChainRole",
      "outputs": [],
      "stateMutability": "nonpayable",
      "type": "function"
    },
    {
      "inputs": [
        {
          "internalType": "bytes4",
          "name": "interfaceId",
          "type": "bytes4"
        }
      ],
      "name": "supportsInterface",
      "outputs": [
        {
          "internalType": "bool",
          "name": "",
          "type": "bool"
        }
      ],
      "stateMutability": "view",
      "type": "function"
    },
    {
      "inputs": [],
      "name": "totalBatches",
      "outputs": [
        {
          "internalType": "uint256",
          "name": "",
          "type": "uint256"
        }
      ],
      "stateMutability": "view",
      "type": "function"
    },
    {
      "inputs": [],
      "name": "unpause",
      "outputs": [],
      "stateMutability": "nonpayable",
      "type": "function"
    }
  ],
  "bytecode": "0x608060405260016002553480156200001657600080fd5b506040516200244e3803806200244e833981016040819052620000399162000158565b6001600160a01b038116620000945760405162461bcd60e51b815260206004820152601660248201527f41646d696e206164647265737320726571756972656400000000000000000000604482015260640160405180910390fd5b620000a1600082620000a9565b50506200018a565b6000828152602081815260408083206001600160a01b038516845290915281205460ff166200014e576000838152602081815260408083206001600160a01b03861684529091529020805460ff19166001179055620001053390565b6001600160a01b0316826001600160a01b0316847f2f8788117e7eff1d82e926ec794901d17c78024a50270940304540a733656f0d60405160405180910390a450600162000152565b5060005b92915050565b6000602082840312156200016b57600080fd5b81516001600160a01b03811681146200018357600080fd5b9392505050565b6122b4806200019a6000396000f3fe608060405234801561001057600080fd5b50600436106101735760003560e01c80636577b86a116100de578063a217fddf11610097578063d3057d2a11610071578063d3057d2a146103b4578063d547741f146103c7578063f0bd87cc146103da578063f0c58ea71461040157600080fd5b8063a217fddf14610384578063c0157bfc1461038c578063c602d3fb1461039f57600080fd5b80636577b86a1461029f57806369ff6abb146103395780638456cb591461034157806391d1485414610349578063965288b01461035c5780639b442b741461037157600080fd5b806336568abe1161013057806336568abe146102335780633ee57ad3146102465780633f4ba83a146102595780634249ca4e146102615780635ac44282146102745780635c975abb1461029457600080fd5b806301ffc9a714610178578063144bf589146101a0578063237cd2d7146101d5578063248a9ca3146101ea578063274fae7c1461020d5780632f2ff15d14610220575b600080fd5b61018b610186366004611c23565b610416565b60405190151581526020015b60405180910390f35b6101c77f20b5f7ac978e5d6199de06401411960dfa81d2f762655f6206bdc61d46fc19e681565b604051908152602001610197565b6101e86101e3366004611c70565b61044d565b005b6101c76101f8366004611ca5565b60009081526020819052604090206001015490565b6101e861021b366004611ca5565b6108f1565b6101e861022e366004611cbe565b610afc565b6101e8610241366004611cbe565b610b27565b6101e8610254366004611cea565b610b5f565b6101e8610bc9565b6101e861026f366004611cea565b610bdf565b610287610282366004611ca5565b610c49565b6040516101979190611d92565b60015460ff1661018b565b6102f66102ad366004611ca5565b60056020526000908152604090208054600182015460028301546003909301546001600160a01b039283169392821692600160a01b9092046001600160401b0316919060ff1685565b604080516001600160a01b0396871681529590941660208601526001600160401b039092169284019290925260608301919091521515608082015260a001610197565b6101c7610ed2565b6101e8610ee8565b61018b610357366004611cbe565b610efb565b6101c760008051602061223f83398151915281565b6101e861037f366004611e75565b610f24565b6101c7600081565b6101c761039a366004611edf565b61110f565b6101c760008051602061221f83398151915281565b6101e86103c2366004611f7a565b61150e565b6101e86103d5366004611cbe565b6118a2565b6101c77ffbd454f36a7e1a388bd6fc3ab10d434aa4578f811acbbcf33afb1c697486313c81565b6101c760008051602061225f83398151915281565b60006001600160e01b03198216637965db0b60e01b148061044757506301ffc9a760e01b6001600160e01b03198316145b92915050565b6104556118c7565b6000838152600360205260409020600801548390610100900460ff166104965760405162461bcd60e51b815260040161048d90611fb7565b60405180910390fd5b60008481526003602052604090206004015484906001600160a01b031633146105015760405162461bcd60e51b815260206004820152601e60248201527f4f6e6c792063757272656e7420637573746f6469616e2063616e206163740000604482015260640161048d565b600085815260036020819052604090912090600882015460ff16600481111561052c5761052c611d5a565b036105795760405162461bcd60e51b815260206004820181905260248201527f526563616c6c656420626174636865732063616e6e6f74206265206d6f766564604482015260640161048d565b6004600882015460ff16600481111561059457610594611d5a565b036105eb5760405162461bcd60e51b815260206004820152602160248201527f44697370656e73656420626174636865732063616e6e6f74206265206d6f76656044820152601960fa1b606482015260840161048d565b6001600160a01b0385166106395760405162461bcd60e51b8152602060048201526015602482015274149958da5c1a595b9d081a5cc81c995c5d5a5c9959605a1b604482015260640161048d565b336001600160a01b0386160361069b5760405162461bcd60e51b815260206004820152602160248201527f526563697069656e74206d757374206469666665722066726f6d2073656e64656044820152603960f91b606482015260840161048d565b6106a4856118ed565b6107015760405162461bcd60e51b815260206004820152602860248201527f526563697069656e74206973206e6f7420616e20617070726f766564207061726044820152671d1a58da5c185b9d60c21b606482015260840161048d565b60008681526005602052604090206003015460ff16156107635760405162461bcd60e51b815260206004820152601f60248201527f50656e64696e67207472616e7366657220616c72656164792065786973747300604482015260640161048d565b6040518060a00160405280336001600160a01b03168152602001866001600160a01b03168152602001426001600160401b03168152602001858152602001600115158152506005600088815260200190815260200160002060008201518160000160006101000a8154816001600160a01b0302191690836001600160a01b0316021790555060208201518160010160006101000a8154816001600160a01b0302191690836001600160a01b0316021790555060408201518160010160146101000a8154816001600160401b0302191690836001600160401b031602179055506060820151816002015560808201518160030160006101000a81548160ff02191690831515021790555090505060018160080160006101000a81548160ff0219169083600481111561089657610896611d5a565b0217905550846001600160a01b0316336001600160a01b0316877f333a6453f4a82ac50f0fab4686a6fdb0a37fdef51d985ab5433c44d160bb2a9f876040516108e191815260200190565b60405180910390a4505050505050565b6108f96118c7565b6000818152600360205260409020600801548190610100900460ff166109315760405162461bcd60e51b815260040161048d90611fb7565b600082815260056020908152604091829020825160a08101845281546001600160a01b039081168252600183015490811693820193909352600160a01b9092046001600160401b0316928201929092526002820154606082015260039091015460ff161515608082018190526109e95760405162461bcd60e51b815260206004820152601a60248201527f4e6f2070656e64696e67207472616e7366657220657869737473000000000000604482015260640161048d565b60208101516001600160a01b03163314610a455760405162461bcd60e51b815260206004820152601960248201527f4f6e6c7920726563697069656e742063616e2061636365707400000000000000604482015260640161048d565b60008381526003602052604090206004810180546001600160a01b031916331790556008810180546002919060ff1916600183021790555060008481526005602052604080822080546001600160a01b03191681556001810180546001600160e01b031916905560028101839055600301805460ff191690558351905133926001600160a01b039092169187917f9cc86532afd4843c8838f17d7972e7f29389fe47d6712b6666af2d42df29ab389190a450505050565b600082815260208190526040902060010154610b1781611973565b610b21838361197d565b50505050565b6001600160a01b0381163314610b505760405163334bd91960e11b815260040160405180910390fd5b610b5a8282611a0f565b505050565b6000610b6a81611973565b6001600160a01b038316610bb65760405162461bcd60e51b81526020600482015260136024820152721058d8dbdd5b9d081a5cc81c995c5d5a5c9959606a1b604482015260640161048d565b610bbf82611a7a565b610b21828461197d565b6000610bd481611973565b610bdc611b36565b50565b6000610bea81611973565b6001600160a01b038316610c365760405162461bcd60e51b81526020600482015260136024820152721058d8dbdd5b9d081a5cc81c995c5d5a5c9959606a1b604482015260640161048d565b610c3f82611a7a565b610b218284611a0f565b604080516101608101825260008082526060602083018190529282018390529181018290526080810182905260a0810182905260c0810182905260e08101829052610100810182905261012081018290526101408101919091526000828152600360205260409020600801548290610100900460ff16610cdb5760405162461bcd60e51b815260040161048d90611fb7565b600360008481526020019081526020016000206040518061016001604052908160008201548152602001600182018054610d1490611fe5565b80601f0160208091040260200160405190810160405280929190818152602001828054610d4090611fe5565b8015610d8d5780601f10610d6257610100808354040283529160200191610d8d565b820191906000526020600020905b815481529060010190602001808311610d7057829003601f168201915b50505050508152602001600282018054610da690611fe5565b80601f0160208091040260200160405190810160405280929190818152602001828054610dd290611fe5565b8015610e1f5780601f10610df457610100808354040283529160200191610e1f565b820191906000526020600020905b815481529060010190602001808311610e0257829003601f168201915b505050918352505060038201546001600160a01b0390811660208301526004808401549182166040840152600160a01b9091046001600160401b0390811660608401526005840154166080830152600683015460a0830152600783015460c0830152600883015460e09092019160ff1690811115610e9f57610e9f611d5a565b6004811115610eb057610eb0611d5a565b815260089190910154610100900460ff16151560209091015291505b50919050565b60006001600254610ee3919061202f565b905090565b6000610ef381611973565b610bdc611b88565b6000918252602082815260408084206001600160a01b0393909316845291905290205460ff1690565b610f2c6118c7565b6000828152600360205260409020600801548290610100900460ff16610f645760405162461bcd60e51b815260040161048d90611fb7565b600083815260036020819052604090912090600882015460ff166004811115610f8f57610f8f611d5a565b03610fd55760405162461bcd60e51b815260206004820152601660248201527510985d18da08185b1c9958591e481c9958d85b1b195960521b604482015260640161048d565b60038101546001600160a01b031633148061101557506110157f20b5f7ac978e5d6199de06401411960dfa81d2f762655f6206bdc61d46fc19e633610efb565b6110735760405162461bcd60e51b815260206004820152602960248201527f4f6e6c79206d616e756661637475726572206f7220726567756c61746f722063604482015268185b881c9958d85b1b60ba1b606482015260840161048d565b6008810180546003919060ff1916600183021790555060008481526005602052604080822080546001600160a01b03191681556001810180546001600160e01b031916905560028101929092556003909101805460ff1916905551339085907f65a4fb168a978ec9dce6718240f0061b7b92eb7484df14b5f7daeada9c81306d906111019087815260200190565b60405180910390a350505050565b60006111196118c7565b60008051602061223f83398151915261113181611973565b876111775760405162461bcd60e51b815260206004820152601660248201527510985d18da0818dbd919481a5cc81c995c5d5a5c995960521b604482015260640161048d565b856111c45760405162461bcd60e51b815260206004820152601860248201527f50726f64756374206e616d652069732072657175697265640000000000000000604482015260640161048d565b42856001600160401b03161161121c5760405162461bcd60e51b815260206004820152601c60248201527f457870697279206d75737420626520696e207468652066757475726500000000604482015260640161048d565b6000898960405161122e929190612042565b604080519182900390912060008181526004602052919091205490915060ff161561129b5760405162461bcd60e51b815260206004820152601760248201527f426174636820636f646520616c72656164792075736564000000000000000000604482015260640161048d565b6000818152600460205260408120805460ff1916600190811790915560028054955090916112c98387612052565b925050819055506040518061016001604052808481526020018b8b8080601f016020809104026020016040519081016040528093929190818152602001838380828437600092019190915250505090825250604080516020601f8c018190048102820181019092528a815291810191908b908b90819084018382808284376000920182905250938552505033602084018190526040840152506001600160401b0342811660608401528916608083015260a0820188905260c0820187905260e090910190815260016020918201819052600086815260038352604090208351815591830151908201906113bc90826120cb565b50604082015160028201906113d190826120cb565b5060608201516003820180546001600160a01b0319166001600160a01b0392831617905560808301516004808401805460a0870151939094166001600160e01b031990941693909317600160a01b6001600160401b03938416021790925560c084015160058401805467ffffffffffffffff19169190921617905560e0830151600683015561010083015160078301556101208301516008830180549192909160ff191690600190849081111561148a5761148a611d5a565b02179055506101408201518160080160016101000a81548160ff021916908315150217905550905050336001600160a01b0316837fd23a98cef9fa2c16347ca3a4c38b90d57737263d7d026996e46359b4e4822bf78c8c8c8c8b8b8e6040516114f997969594939291906121b3565b60405180910390a35050979650505050505050565b6115166118c7565b6000838152600360205260409020600801548390610100900460ff1661154e5760405162461bcd60e51b815260040161048d90611fb7565b600084815260036020819052604090912090600882015460ff16600481111561157957611579611d5a565b036115c65760405162461bcd60e51b815260206004820152601c60248201527f43616e6e6f742075706461746520726563616c6c656420626174636800000000604482015260640161048d565b6004600882015460ff1660048111156115e1576115e1611d5a565b0361162e5760405162461bcd60e51b815260206004820152601b60248201527f44697370656e7365642062617463686573206172652066696e616c0000000000604482015260640161048d565b60048101546001600160a01b031633148061165c575061165c60008051602061221f83398151915233610efb565b6116bb5760405162461bcd60e51b815260206004820152602a60248201527f53656e646572206973206e6f74207065726d697474656420746f2061646420636044820152696865636b706f696e747360b01b606482015260840161048d565b60038360048111156116cf576116cf611d5a565b0361171c5760405162461bcd60e51b815260206004820152601b60248201527f55736520726563616c6c426174636820666f7220726563616c6c730000000000604482015260640161048d565b600083600481111561173057611730611d5a565b0361178c5760405162461bcd60e51b815260206004820152602660248201527f436865636b706f696e742063616e6e6f742072657665727420746f20726567696044820152651cdd195c995960d21b606482015260840161048d565b60048360048111156117a0576117a0611d5a565b036118315760048101546001600160a01b0316331480156117d457506117d460008051602061225f83398151915233610efb565b6118315760405162461bcd60e51b815260206004820152602860248201527f4f6e6c792074686520706861726d61637920637573746f6469616e2063616e2060448201526764697370656e736560c01b606482015260840161048d565b60088101805484919060ff1916600183600481111561185257611852611d5a565b0217905550336001600160a01b0316857f85a11b48188ab60ed1fe64e060762eefd34429d2459b31f5109ee111abaf65e68587604051611893929190612203565b60405180910390a35050505050565b6000828152602081905260409020600101546118bd81611973565b610b218383611a0f565b60015460ff16156118eb5760405163d93c066560e01b815260040160405180910390fd5b565b600061190760008051602061223f83398151915283610efb565b80611925575061192560008051602061221f83398151915283610efb565b8061195557506119557ffbd454f36a7e1a388bd6fc3ab10d434aa4578f811acbbcf33afb1c697486313c83610efb565b80610447575061044760008051602061225f83398151915283610efb565b610bdc8133611bc3565b60006119898383610efb565b611a07576000838152602081815260408083206001600160a01b03861684529091529020805460ff191660011790556119bf3390565b6001600160a01b0316826001600160a01b0316847f2f8788117e7eff1d82e926ec794901d17c78024a50270940304540a733656f0d60405160405180910390a4506001610447565b506000610447565b6000611a1b8383610efb565b15611a07576000838152602081815260408083206001600160a01b0386168085529252808320805460ff1916905551339286917ff6391f5c32d9c69d2a47ea670b442974b53935d1edc7fd64eb21e047a839171b9190a4506001610447565b60008051602061223f8339815191528114158015611aa6575060008051602061221f8339815191528114155b8015611ad257507ffbd454f36a7e1a388bd6fc3ab10d434aa4578f811acbbcf33afb1c697486313c8114155b8015611aec575060008051602061225f8339815191528114155b8015611b1857507f20b5f7ac978e5d6199de06401411960dfa81d2f762655f6206bdc61d46fc19e68114155b15610bdc57604051630fc8141760e11b815260040160405180910390fd5b611b3e611c00565b6001805460ff191690557f5db9ee0a495bf2e6ff9c91a7834c1ba4fdd244a5e8aa4e537bd38aeae4b073aa335b6040516001600160a01b03909116815260200160405180910390a1565b611b906118c7565b6001805460ff1916811790557f62e78cea01bee320cd4e420270b5ea74000d11b0c9f74754ebdbfc544b05a25833611b6b565b611bcd8282610efb565b611bfc5760405163e2517d3f60e01b81526001600160a01b03821660048201526024810183905260440161048d565b5050565b60015460ff166118eb57604051638dfc202b60e01b815260040160405180910390fd5b600060208284031215611c3557600080fd5b81356001600160e01b031981168114611c4d57600080fd5b9392505050565b80356001600160a01b0381168114611c6b57600080fd5b919050565b600080600060608486031215611c8557600080fd5b83359250611c9560208501611c54565b9150604084013590509250925092565b600060208284031215611cb757600080fd5b5035919050565b60008060408385031215611cd157600080fd5b82359150611ce160208401611c54565b90509250929050565b60008060408385031215611cfd57600080fd5b611d0683611c54565b946020939093013593505050565b6000815180845260005b81811015611d3a57602081850181015186830182015201611d1e565b506000602082860101526020601f19601f83011685010191505092915050565b634e487b7160e01b600052602160045260246000fd5b60058110611d8e57634e487b7160e01b600052602160045260246000fd5b9052565b602081528151602082015260006020830151610160806040850152611dbb610180850183611d14565b91506040850151601f19858403016060860152611dd88382611d14565b9250506060850151611df560808601826001600160a01b03169052565b5060808501516001600160a01b03811660a08601525060a08501516001600160401b03811660c08601525060c08501516001600160401b03811660e08601525060e08501516101008581019190915285015161012080860191909152850151610140611e6381870183611d70565b90950151151593019290925250919050565b60008060408385031215611e8857600080fd5b50508035926020909101359150565b60008083601f840112611ea957600080fd5b5081356001600160401b03811115611ec057600080fd5b602083019150836020828501011115611ed857600080fd5b9250929050565b600080600080600080600060a0888a031215611efa57600080fd5b87356001600160401b0380821115611f1157600080fd5b611f1d8b838c01611e97565b909950975060208a0135915080821115611f3657600080fd5b611f428b838c01611e97565b909750955060408a013591508082168214611f5c57600080fd5b50969995985093969295946060840135945060809093013592915050565b600080600060608486031215611f8f57600080fd5b8335925060208401359150604084013560058110611fac57600080fd5b809150509250925092565b60208082526014908201527310985d18da08191bd95cc81b9bdd08195e1a5cdd60621b604082015260600190565b600181811c90821680611ff957607f821691505b602082108103610ecc57634e487b7160e01b600052602260045260246000fd5b634e487b7160e01b600052601160045260246000fd5b8181038181111561044757610447612019565b8183823760009101908152919050565b8082018082111561044757610447612019565b634e487b7160e01b600052604160045260246000fd5b601f821115610b5a576000816000526020600020601f850160051c810160208610156120a45750805b601f850160051c820191505b818110156120c3578281556001016120b0565b505050505050565b81516001600160401b038111156120e4576120e4612065565b6120f8816120f28454611fe5565b8461207b565b602080601f83116001811461212d57600084156121155750858301515b600019600386901b1c1916600185901b1785556120c3565b600085815260208120601f198616915b8281101561215c5788860151825594840194600190910190840161213d565b508582101561217a5787850151600019600388901b60f8161c191681555b5050505050600190811b01905550565b81835281816020850137506000828201602090810191909152601f909101601f19169091010190565b60a0815260006121c760a08301898b61218a565b82810360208401526121da81888a61218a565b6040840196909652505060608101929092526001600160401b0316608090910152949350505050565b604081016122118285611d70565b826020830152939250505056feded9b5e0e0e3a2b3f09a0bc36ec64b9bf7a7c2319f3c4d9cff5ce48714257b21eefb95e842a3287179d933b4460be539a1d5af11aa8b325bb45c5c8dc92de4ed2f3a5455f35aeca177ac653592f277fbe2fbafef01081a2030451bb2fb41c91da26469706673582212209d871a76e4b79402c24ab7fc1fe6551d00ec373956afe5a54694309e65aacb6164736f6c63430008180033",
  "linkReferences": {},
  "deployedLinkReferences": {}
}